:020000040800F2
:100000000000032099070008610800086D08000837
:10001000750800087D080008850800080000000039
:100020000000000000000000000000008D08000833
:100030009908000800000000A5080008F107000862
:10004000F1070008F1070008F1070008F1070008B0
:10005000F1070008F1070008F1070008F1070008A0
:10006000F1070008F1070008F1070008F107000890
:10007000F1070008F1070008B1080008F1070008BF
:10008000F1070008F1070008F1070008F107000870
:10009000F1070008F1070008F1070008F107000860
:1000A000F1070008F1070008F1070008F107000850
:1000B000F1070008F1070008F1070008F107000840
:1000C000F1070008F1070008F1070008F107000830
:1000D000F1070008C1080008F1070008F10700084F
:1000E000F1070008F1070008F1070008F107000810
:1000F000F1070008F1070008F1070008F107000800
:10010000F1070008F1070008F1070008F1070008EF
:10011000F1070008F1070008F1070008F1070008DF
:10012000F1070008F1070008F1070008D9080008E6
:10013000F1070008F1070008F1070008F1070008BF
:10014000F1070008F1070008F1070008F1070008AF
:10015000F1070008F1070008F1070008F10700089F
:10016000F1070008F1070008F1070008F10700088F
:10017000F1070008F1070008F1070008000000007F
:10018000F1070008F1070008F1070008F10700086F
:10019000F1070008F1070008F1070008F10700085F
:0C01A000F1070008F1070008F107000853
:1001AC0010B5054C237833B9044B13B10448AFF3A5
:1001BC0000800123237010BD2000002000000000EF
:1001CC00FC32000808B5034B1BB103480349AFF3DD
:1001DC00008008BD00000000FC3200082400002054
:1001EC004BB942B9002908BF002802D04FF0FF31AB
:1001FC00084600F03BB882B0EC462DE9005000F008
:10020C001DF8DDF804E002B00CBC70472DE970431A
:10021C00069E14461D468046894600F029F804FBCC
:10022C0001F300FB0533A4FB00451D44B8EB0404AB
:10023C0069EB0505C6E90045BDE870832DE97043FF
:10024C00069E1446804689461D4600F05DF900FB6B
:10025C0005F504FB0153A0FB04451D44B8EB040455
:10026C0069EB0505C6E90045BDE87083704700BF22
:10027C0000292DE9F00FC0F29F800024002BC0F262
:10028C009680154606460F46002B3ED18A4257D91A
:10029C00B2FA82F34BB1C3F1200201FA03F720FA50
:1002AC0002F29D40174300FA03F6290CB7FBF1F25A
:1002BC00330C01FB127CA8B243EA0C4700FB02F39F
:1002CC00BB4209D97F1902F1FF3C80F00181BB428E
:1002DC0040F2FE80023A2F44FF1AB7FBF1F3B6B29C
:1002EC0001FB137146EA014100FB03F0884208D977
:1002FC00491903F1FF3780F0ED80884240F2EA8023
:10030C00023B43EA0242002303E08B420AD900235A
:10031C001A461046194614B1404261EB4101BDE842
:10032C00F00F7047B3FA83F8B8F1000F40F08480F7
:10033C008B4202D3824200F2DE8000230122E8E7E6
:10034C0012B90123B3FBF2F5B5FA85F2002A39D1C3
:10035C007F1B280C1FFA85FC0123B7FBF0F1320C34
:10036C0000FB117742EA07470CFB01F2BA4207D9AE
:10037C007F1901F1FF3802D2BA4200F2C180414626
:10038C00BF1AB7FBF0F2B6B200FB127046EA00409F
:10039C000CFB02FC844507D9401902F1FF3702D24D
:1003AC00844500F2AB803A4642EA0142B1E7E443AD
:1003BC00524263EB430364E7404261EB41014FF06F
:1003CC00FF345BE79540C2F1200327FA03F1280CB8
:1003DC0026FA03F39740B1FBF0F81F433B0C00FBEC
:1003EC0018111FFA85FC43EA01410CFB08F38B4200
:1003FC0006FA02F608D9491908F1FF3279D28B4274
:10040C0077D9A8F102082944C91AB1FBF0F3BFB29D
:10041C0000FB131147EA01470CFB03F2BA4207D960
:10042C007F1903F1FF3160D2BA425ED9023B2F44EF
:10043C00BF1A43EA084390E7C8F1200203FA08FC0C
:10044C0025FA02F343EA0C0C4FEA1C4921FA02F399
:10045C0001FA08F720FA02F2B3FBF9F1174309FB92
:10046C0011333A0C1FFA8CFB42EA03430BFB01FAE3
:10047C009A4505FA08F008D913EB0C0301F1FF3289
:10048C0035D29A4533D902396344CAEB0303B3FB23
:10049C00F9F209FB1233BFB247EA03470BFB02F92F
:1004AC00B94508D917EB0C0702F1FF331BD2B9453C
:1004BC0019D9023A674442EA0145A5FB0001C9EB90
:1004CC0007078F424FF000030AD305D02A4620E7D6
:1004DC00624601E73B4614E706FA08F68642F5D277
:1004EC006A1E002315E71A46E5E70B46A0E71146FE
:1004FC00CBE7904688E7434642460AE7023A53E781
:10050C0002392F443CE700BF2DE9F00F1446054695
:10051C000E46002B43D18A4253D9B2FA82F757B117
:10052C00C7F1200620FA06F601FA07F302FA07F4DF
:10053C001E4300FA07F5210CB6FBF1F22B0C01FB64
:10054C001267A0B243EA074600FB02F3B34209D993
:10055C00361902F1FF3780F0F680B34240F2F38097
:10056C00023A2644F61AB6FBF1F3ADB201FB136165
:10057C0045EA014100FB03F0884208D9091903F14F
:10058C00FF3680F0E280884240F2DF80023B43EA93
:10059C000242002310461946BDE8F00F70478B420B
:1005AC004AD8B3FA83F6002E4DD18B4202D3824245
:1005BC0000F2D6800023012210461946BDE8F00F48
:1005CC00704712B90124B4FBF2F4B4FA84F2002A95
:1005DC007CD1091B260CA7B20123B1FBF6F02A0C27
:1005EC0006FB101142EA014107FB00F28A4207D9CF
:1005FC00091900F1FF3C02D28A4200F2C380604626
:10060C00891AB1FBF6F2ADB206FB121145EA0145AF
:10061C0007FB02F7AF4208D92C1902F1FF3180F029
:10062C009680A74240F29380023A42EA004210467A
:10063C001946BDE8F00F704700231A4610461946BC
:10064C00BDE8F00F7047C6F1200522FA05F4B3405F
:10065C001C434FEA144821FA05F301FA06F720FA75
:10066C0005F5B3FBF8FC2F4308FB1C333D0C1FFABC
:10067C0084FA45EA03430AFB0CF9994502FA06FB96
:10068C0004D91B190CF1FF326DD39446C9EB03034B
:10069C00B3FBF8F508FB1533BFB247EA03470AFB77
:1006AC0005F8B84504D93F1905F1FF3361D31D4650
:1006BC0045EA0C4CACFB0B23C8EB07079F424FF0F1
:1006CC00000549D345D062462B4663E79440C2F1FE
:1006DC00200321FA03FC260C20FA03F301FA02F59D
:1006EC00BCFBF6F843EA05010B0C06FB18CCA7B2D1
:1006FC0043EA0C4C07FB08F3634500FA02F509D9F1
:10070C001CEB040C08F1FF323AD2634538D9A8F13E
:10071C000208A444C3EB0C0CBCFBF6F389B206FB39
:10072C0013CC41EA0C4107FB03F28A4207D90919A1
:10073C0003F1FF3022D28A4220D9023B2144891A8C
:10074C0043EA084349E73A460CE733461FE70A46B3
:10075C006BE7B0409042B6D20CF1FF32002319E7A0
:10076C003346324616E799458FD9ACF1020C234437
:10077C008CE7B8459BD9023D274499E70346DEE751
:10078C009046C7E7023821443AE700BFDFF83CD077
:10079C00002100F004B80E4B5B58435004310D4857
:1007AC000D4B42189A42FFF4F6AF0C4A00F003B816
:1007BC00002342F8043B0A4B9A42FFF4F9AF00F0D5
:1007CC0013F802F06FFD00F011FA704700000320DF
:1007DC0044330008000000202000002020000020EE
:1007EC0054020020FFF7FEBF80B400AF164B164A30
:1007FC00D2F8882042F47002C3F88820134B134AB5
:10080C00126842F001021A60104B00229A600F4AE3
:10081C000E4B1B6823F0847323F4803313600B4B53
:10082C000B4A5A60094B094A126822F480221A605A
:10083C00064B0022DA60044B4FF000629A60BD4612
:10084C005DF8047B704700BF00ED00E0003802400B
:10085C001030002480B400AFBD465DF8047B7047B7
:10086C0080B400AFFEE700BF80B400AFFEE700BF6E
:10087C0080B400AFFEE700BF80B400AFFEE700BF5E
:10088C0080B400AFBD465DF8047B704780B400AF08
:10089C00BD465DF8047B704780B400AFBD465DF883
:1008AC00047B704780B500AF014802F05DF980BD54
:1008BC00DC00002080B500AF034800F06FFB02485D
:1008CC0000F014FC80BD00BF5001002080B500AFCB
:1008DC00014802F049F980BDE801002080B483B0E2
:1008EC0000AF00237B600F4B0E4A526C42F48042E7
:1008FC005A640C4B5B6C03F480437B607B68002375
:10090C003B60084B074A126C42F080521A64054B4C
:10091C001B6C03F080533B603B680C37BD465DF8A5
:10092C00047B70470038024080B58CB000AF786013
:10093C0007F11C0300221A60043300221A600433EE
:10094C0000221A60043300221A60043300221A6059
:10095C0004337B681A686F4B9A425AD10023BB61EF
:10096C006D4B6D4A526C42F480525A646A4B5B6C0C
:10097C0003F48053BB61BB6900237B61664B664A01
:10098C00126B42F001021A63634B1B6B03F0010301
:10099C007B617B69A023FB6102233B6200237B62AA
:1009AC000323BB620523FB6207F11C035B4819465A
:1009BC0001F060FE5A4B5B4A1A60594B4FF0C06213
:1009CC005A60574B40229A60554B0022DA60544BC8
:1009DC004FF480621A61524B00225A61504B002234
:1009EC009A614F4B0022DA614D4B00221A624C4B3C
:1009FC0000225A624A4801F0E7FF0346002B01D05F
:100A0C0000F0A8FA7B68464A9A64454B7A689A6368
:100A1C007CE07B681A68444B9A4277D100233B6197
:100A2C003D4B3D4A126C42F480421A643A4B1B6CAB
:100A3C0003F480433B613B690023FB60364B364A31
:100A4C00126B42F004021A63334B1B6B03F004036A
:100A5C00FB60FB680023BB602F4B2F4A126B42F0EC
:100A6C0002021A632C4B1B6B03F00203BB60BB68C6
:100A7C000823FB6102233B6200237B620323BB62DE
:100A8C000523FB6207F11C032848194601F0F2FD0F
:100A9C004FF48063FB6102233B6200237B620323E0
:100AAC00BB620523FB6207F11C032148194601F0C8
:100ABC00E1FD204B204A1A601E4B00225A601D4B50
:100ACC0000229A601B4B0022DA601A4B4FF48062B2
:100ADC001A61184B00225A61164B00229A61154B71
:100AEC000022DA61134B00221A62124B00225A6266
:100AFC00104801F069FF0346002B01D000F02AFAE0
:100B0C007B680C4ADA640B4B7A689A633037BD46C3
:100B1C0080BD00BF003001400038024000000240A0
:100B2C00E8010020586402400038004000080240F0
:100B3C0000040240DC0000205860024080B58AB0FE
:100B4C0000AF786007F1140300221A60043300220E
:100B5C001A60043300221A60043300221A60043332
:100B6C0000221A6004337B681A681D4B9A4234D1F8
:100B7C0000233B611B4B1B4A526C42F010025A641F
:100B8C00184B5B6C03F010033B613B690023FB606B
:100B9C00144B144A126B42F001021A63114B1B6B7B
:100BAC0003F00103FB60FB684FF4C0637B6102231D
:100BBC00BB610123FB6103233B6207237B6207F1CB
:100BCC0014030948194601F055FD25200021002287
:100BDC0002F0D4FA252002F0EDFA2837BD4680BD8C
:100BEC0000100140003802400000024080B500AF08
:100BFC0002F0FAFA00F016F800F06AF900F034F995
:100C0C0000F00AF900F0A0F800F0D4F80348044909
:100C1C000A220A2300F018FFF8E700BF9001002019
:100C2C000400002080B594B000AF07F1200300222F
:100C3C001A60043300221A60043300221A60043351
:100C4C0000221A60043300221A60043300221A6056
:100C5C00043300221A60043300221A600433002289
:100C6C001A60043300221A60043300221A60043321
:100C7C0000221A60043307F10C0300221A600433BB
:100C8C0000221A60043300221A60043300221A6016
:100C9C00043300221A6004330023BB60284B284A1B
:100CAC00126C42F080521A64254B1B6C03F080537B
:100CBC00BB60BB6800237B60224B224A126822F483
:100CCC00404242F480421A601E4B1B6803F44043BE
:100CDC007B607B6801233B624FF480337B62022391
:100CEC00BB634FF48003FB6304233B6448237B64A6
:100CFC000223BB640323FB6407F12003184601F0B5
:100D0C0081F80346002B01D000F024F90F23FB607F
:100D1C0002233B6100237B614FF48053BB610023B2
:100D2C00FB6107F10C031846022101F0ABFA0346F4
:100D3C00002B01D000F00EF95037BD4680BD00BF2E
:100D4C00003802400070004080B500AF174B184AC5
:100D5C001A60164B4FF482725A60144B00229A6040
:100D6C00124B0022DA60114B00221A610F4B002249
:100D7C005A610E4B4FF400729A610C4B0022DA61EF
:100D8C000A4B00221A62094B00225A62074B0022BE
:100D9C009A62064B0A22DA62044800F0F1FD03461F
:100DAC00002B01D000F0D6F880BD00BF90010020D0
:100DBC000030014080B500AF154B164A1A60144B39
:100DCC0000225A60124B4FF480629A60104B002242
:100DDC00DA600F4B00221A610D4B00225A610C4B4A
:100DEC004FF400729A610A4B00221A62084B0022DF
:100DFC005A62074B00229A62054B0A22DA620448B7
:100E0C0000F0BEFD0346002B01D000F0A3F880BD1E
:100E1C00840000200038004080B500AF104B114A10
:100E2C001A600F4B4FF416525A600D4B00229A6009
:100E3C000B4B0022DA600A4B00221A61084B0C2281
:100E4C005A61074B00229A61054B0022DA61044873
:100E5C0000F0FEF80346002B01D000F07BF880BDBB
:100E6C00500100200010014080B582B000AF00237B
:100E7C007B60164B154A126B42F480021A63134BBB
:100E8C001B6B03F480037B607B6800233B600F4B80
:100E9C000E4A126B42F400121A630C4B1B6B03F4D8
:100EAC0000133B603B680E200021002202F066F923
:100EBC000E2002F07FF93B200021002202F05EF9A7
:100ECC003B2002F077F90837BD4680BD0038024060
:100EDC0080B485B000AF0023FB601D4B1C4A126B25
:100EEC0042F080021A631A4B1B6B03F08003FB6009
:100EFC00FB680023BB60164B154A126B42F00402D0
:100F0C001A63134B1B6B03F00403BB60BB68002319
:100F1C007B600F4B0E4A126B42F001021A630C4BB2
:100F2C001B6B03F001037B607B6800233B60084B69
:100F3C00074A126B42F002021A63054B1B6B03F05B
:100F4C0002033B603B681437BD465DF8047B704779
:100F5C000038024080B400AFBD465DF8047B70479A
:100F6C0080B485B000AF03463960FB713B681B6CE5
:100F7C00013303F03F03FB60FA683B685B6C9A42F9
:100F8C0007D03B681B6C3A68F979D154FA683B6816
:100F9C001A641437BD465DF8047B704780B586B083
:100FAC0000AF78607B681B681B687B617B681B6883
:100FBC00DB683B617B6903F02003002B13D03B699A
:100FCC0003F02003002B0ED07B681B681B687B682A
:100FDC001B685B68FB731C4B1B68FA7B104619463D
:100FEC00FFF7BEFF2CE07B6903F08003002B27D0BA
:100FFC003B6903F08003002B22D0144B1A6C134B6B
:10100C005B6C9A4208D17B681B687A681268D2685C
:10101C0022F08002DA6012E00C4B5B6C0B4AD35C62
:10102C00BB730A4B5B6C013303F03F02074B5A64F2
:10103C007B681B681B687B681B68BA7B5A6000BFA7
:10104C001837BD4680BD00BF4C0200203C0000207C
:10105C0080B582B000AF78607B68002B01D1012392
:10106C003FE07B6893F83930DBB2002B06D17B680C
:10107C00002283F838207868FFF760FD7B68242213
:10108C0083F839207B681B687A681268D26822F46E
:10109C000052DA60786800F063FA7B681B687A6843
:1010AC001268126922F490421A617B681B687A6894
:1010BC001268526922F02A025A617B681B687A68AE
:1010CC001268D26842F40052DA607B680022DA635C
:1010DC007B68202283F839207B68202283F83A2011
:1010EC00002318460837BD4680BD00BF80B588B0C8
:1010FC0000AF78607B681B681B68FB617B681B68B2
:10110C00DB68BB617B681B685B697B6100233B61AF
:10111C000023FB60FB6903F00F033B613B69002B71
:10112C000DD1FB6903F02003002B08D0BB6903F041
:10113C002003002B03D0786800F090F9CAE03B69DB
:10114C00002B00F0AB807B6903F00103002B05D171
:10115C00BB6903F49073002B00F0A080FB6903F0D3
:10116C000103002B0AD0BB6903F48073002B05D05C
:10117C007B68DB6B43F001027B68DA63FB6903F08D
:10118C000403002B0AD07B6903F00103002B05D06C
:10119C007B68DB6B43F002027B68DA63FB6903F06C
:1011AC000203002B0AD07B6903F00103002B05D04E
:1011BC007B68DB6B43F004027B68DA63FB6903F04A
:1011CC000803002B0AD07B6903F00103002B05D028
:1011DC007B68DB6B43F008027B68DA637B68DB6B54
:1011EC00002B5AD0FB6903F02003002B07D0BB69FE
:1011FC0003F02003002B02D0786800F02FF97B68F5
:10120C001B685B6903F04003002B0CBF0023012318
:10121C00DBB2FB607B68DB6B03F00803002B02D1B5
:10122C00FB68002B32D0786800F078F87B681B687C
:10123C005B6903F04003002B23D07B681B687A6842
:10124C001268526922F040025A617B685B6B002B7A
:10125C0013D07B685B6B214A1A657B685B6B184605
:10126C0001F060FC0346002B0FD07B685B6B1B6DA1
:10127C007A68526B1046984707E0786800F044F89B
:10128C000BE0786800F040F807E006E0786800F0C2
:10129C003BF87B680022DA631CE01BE0FB6903F07F
:1012AC008003002B08D0BB6903F08003002B03D014
:1012BC00786800F065F80DE0FB6903F04003002B43
:1012CC0008D0BB6903F04003002B03D0786800F012
:1012DC00ADF800BF2037BD4680BD00BF65130008C8
:1012EC0080B483B000AF78600C37BD465DF8047BEA
:1012FC00704700BF80B483B000AF78600C37BD4638
:10130C005DF8047B704700BF80B483B000AF786099
:10131C000C37BD465DF8047B704700BF80B483B0CA
:10132C0000AF78607B681B687A681268D26822F418
:10133C009072DA607B681B687A681268526922F0D6
:10134C0001025A617B68202283F83A200C37BD4693
:10135C005DF8047B704700BF80B584B000AF786047
:10136C007B689B6BFB60FB680022DA85FB680022C4
:10137C00DA84F868FFF7C8FF1037BD4680BD00BFA0
:10138C0080B485B000AF78607B6893F83930DBB2FD
:10139C00212B43D17B689B68B3F5805F19D17B68A7
:1013AC001B6AFB607B681B68FA681288C2F3080230
:1013BC005A607B681B69002B05D17B681B6A9A1CE1
:1013CC007B681A620EE07B681B6A5A1C7B681A6287
:1013DC0008E07B681A687B681B6A581C796808628D
:1013EC001B7853607B68DB8C9BB2013B9BB27A68A9
:1013FC001946D184002B0FD17B681B687A68126860
:10140C00D26822F08002DA607B681B687A68126806
:10141C00D26842F04002DA60002300E00223184652
:10142C001437BD465DF8047B704700BF80B582B0B1
:10143C0000AF78607B681B687A681268D26822F00B
:10144C004002DA607B68202283F839207868FFF745
:10145C0047FF002318460837BD4680BD80B584B0D1
:10146C0000AF78607B6893F83A30DBB2222B71D1F5
:10147C007B689B68B3F5805F23D17B689B6AFB60BC
:10148C007B681B69002B0ED17B681B685B689BB269
:10149C00C3F308039AB2FB681A807B689B6A9A1C98
:1014AC007B689A6229E07B681B685B689BB2DBB245
:1014BC009AB2FB681A807B689B6A5A1C7B689A629A
:1014CC001BE07B681B69002B0AD17B689B6A591C4B
:1014DC007A6891627A6812685268D2B21A700CE01B
:1014EC007B689B6A591C7A6891627A6812685268A8
:1014FC00D2B202F07F02D2B21A707B68DB8D9BB243
:10150C00013B9BB27A681946D185002B20D17B68B0
:10151C001B687A681268D26822F02002DA607B6855
:10152C001B687A681268D26822F48072DA607B6871
:10153C001B687A681268526922F001025A617B6852
:10154C00202283F83A207868FFF7D4FE002302E0CB
:10155C00002300E0022318461037BD4680BD00BFB3
:10156C00F0B585B000AF78607B681B687A6812684C
:10157C00126922F440517A68D2680A431A617B6876
:10158C009A687B681B691A437B685B691A437B68A2
:10159C00DB691343FB607B681A687B681B68DB683C
:1015AC0023F4164323F00C03F9680B43D3607B68D8
:1015BC001B687A681268526922F440717A689269E1
:1015CC000A435A617B68DB69B3F5004F40F0E88051
:1015DC007B681A68AE4B9A4204D07B681A68AD4B94
:1015EC009A426ED17B681C6801F030F802461346B3
:1015FC009B0013449A001A447B685B685B00B2FB47
:10160C00F3F2A54BA3FB02135B091D0101F01EF8BD
:10161C00024613469B0013449A001A447B685B688D
:10162C005B00B2FBF3F601F011F8024613469B0087
:10163C0013449A001A447B685B685B00B2FBF3F2BC
:10164C00954BA3FB02135B09642202FB03F3F31A11
:10165C00DB0003F13202904BA3FB02135B0903F096
:10166C00F8035B001D4400F0F1FF024613469B009B
:10167C0013449A001A447B685B685B00B2FBF3F678
:10168C0000F0E4FF024613469B0013449A001A44F0
:10169C007B685B685B00B2FBF3F27F4BA3FB02132E
:1016AC005B09642202FB03F3F31ADB0003F1320241
:1016BC00794BA3FB02135B0903F007032B44A360D4
:1016CC0059E17B681C6800F0ADFF024613469B0095
:1016DC0013449A001A447B685B685B00B2FBF3F21C
:1016EC006D4BA3FB02135B091D0100F09BFF02462F
:1016FC0013469B0013449A001A447B685B685B009A
:10170C00B2FBF3F600F08EFF024613469B00134427
:10171C009A001A447B685B685B00B2FBF3F25E4B89
:10172C00A3FB02135B09642202FB03F3F31ADB0035
:10173C0003F13202584BA3FB02135B0903F0F803CD
:10174C005B001D4400F06EFF024613469B001344E1
:10175C009A001A447B685B685B00B2FBF3F600F0FE
:10176C0061FF024613469B0013449A001A447B689F
:10177C005B685B00B2FBF3F2474BA3FB02135B0904
:10178C00642202FB03F3F31ADB0003F13202424B37
:10179C00A3FB02135B0903F007032B44A360EAE0ED
:1017AC007B681A683A4B9A4204D07B681A68394BAA
:1017BC009A4273D17B681C6800F048FF02461346BE
:1017CC009B0013449A001A447B685B689B00B2FB35
:1017DC00F3F2314BA3FB02135B091D0100F036FF42
:1017EC00024613469B0013449A001A447B685B68BC
:1017FC009B00B2FBF3F600F029FF024613469B0058
:10180C0013449A001A447B685B689B00B2FBF3F2AA
:10181C00214BA3FB02135B09642202FB03F3F31AB3
:10182C001B0103F132021C4BA3FB02135B0903F0F7
:10183C00F0031D4400F00AFF024613469B001344BC
:10184C009A001A447B685B689B00B2FBF3F600F0CD
:10185C00FDFE024613469B0013449A001A447B6813
:10186C005B689B00B2FBF3F20B4BA3FB02135B090F
:10187C00642202FB03F3F31A1B0103F13202064B41
:10188C00A3FB02135B0903F00F032B44A36072E06C
:10189C0000100140001401401F85EB517B681C684F
:1018AC0000F0C0FE024613469B0013449A001A44F3
:1018BC007B685B689B00B2FBF3F2304BA3FB02131B
:1018CC005B091D0100F0AEFE024613469B0013445B
:1018DC009A001A447B685B689B00B2FBF3F600F03D
:1018EC00A1FE024613469B0013449A001A447B68DF
:1018FC005B689B00B2FBF3F2204BA3FB02135B096A
:10190C00642202FB03F3F31A1B0103F132021B4B9B
:10191C00A3FB02135B0903F0F0031D4400F082FEED
:10192C00024613469B0013449A001A447B685B687A
:10193C009B00B2FBF3F600F075FE024613469B00CB
:10194C0013449A001A447B685B689B00B2FBF3F269
:10195C000A4BA3FB02135B09642202FB03F3F31A89
:10196C001B0103F13202054BA3FB02135B0903F0CD
:10197C000F032B44A3601437BD46F0BD1F85EB51FC
:10198C0080B582B000AF78607B68002B01D1012359
:10199C0055E07B6800229A627B6893F85130DBB289
:1019AC00002B06D17B68002283F850207868FEF764
:1019BC00BBFF7B68022283F851207B681B687A6826
:1019CC001268126822F040021A607B681B687A6801
:1019DC0051687A68926811437A68D26811437A68C0
:1019EC00126911437A68526911437A68926902F458
:1019FC00007211437A68D26911437A68126A1143F2
:101A0C007A68926A0A431A607B681B687A689269E2
:101A1C00120C02F004017A68526A0A435A607B681D
:101A2C001B687A681268D26922F40062DA617B68FA
:101A3C0000225A657B68012283F851200023184646
:101A4C000837BD4680BD00BF80B588B000AFF860D8
:101A5C00B9603B601346FB800023FB77FB6893F86F
:101A6C005030012B01D102231EE1FB68012283F8C7
:101A7C00502001F00BFCB861FB88FB82FB6893F8EB
:101A8C005130DBB2012B02D00223FB7703E1BB68A0
:101A9C00002B02D0FB88002B02D10123FB77FAE04C
:101AAC00FB68032283F85120FB6800225A65FB680F
:101ABC00BA681A63FB68FA889A86FB68FA88DA8631
:101ACC00FB6800229A63FB6800229A87FB6800225D
:101ADC00DA87FB6800225A64FB6800221A64FB68F0
:101AEC009B68B3F5004F07D1FB681B68FA68126856
:101AFC00126842F480421A60FB681B681B6803F092
:101B0C004003002B07D1FB681B68FA681268126847
:101B1C0042F040021A60FB68DB68B3F5006F4CD1F1
:101B2C00FB685B68002B02D0FB8A012B12D1FB688F
:101B3C001B68FA68126B1288DA60FB681B6B9A1CC4
:101B4C00FB681A63FB68DB8E9BB2013B9AB2FB68A5
:101B5C00DA862CE02BE0FB681B689B6803F0020321
:101B6C00002B12D0FB681B68FA68126B1288DA60C3
:101B7C00FB681B6B9A1CFB681A63FB68DB8E9BB2C1
:101B8C00013B9AB2FB68DA8611E001F07FFB02465A
:101B9C00BB69D21A3B689A4203D33B68B3F1FF3F4F
:101BAC0002D13B68002B02D10323FB7773E0FB6867
:101BBC00DB8E9BB2002BCED14DE0FB685B68002B1B
:101BCC0002D0FB8A012B13D1FB681B680C33FA681B
:101BDC00126B12781A70FB681B6B5A1CFB681A6329
:101BEC00FB68DB8E9BB2013B9AB2FB68DA862DE078
:101BFC002CE0FB681B689B6803F00203002B13D0DE
:101C0C00FB681B680C33FA68126B12781A70FB684D
:101C1C001B6B5A1CFB681A63FB68DB8E9BB2013B87
:101C2C009AB2FB68DA8611E001F030FB0246BB6920
:101C3C00D21A3B689A4203D33B68B3F1FF3F02D1FF
:101C4C003B68002B02D10323FB7724E0FB68DB8E7F
:101C5C009BB2002BCDD1F8683968BA6900F092F8C4
:101C6C000346002B02D0FB6820225A65FB689B6858
:101C7C00002B0AD100233B61FB681B68DB683B61CE
:101C8C00FB681B689B683B613B69FB685B6D002BC9
:101C9C0001D00123FB77FB68012283F85120FB68FC
:101CAC00002283F85020FB7F18462037BD4680BDAC
:101CBC0080B584B000AFF860B9603B601346FB712F
:101CCC004CE03B68B3F1FF3F48D001F0DFFA02462D
:101CDC00BB69D21A3B689A4202D23B68002B3DD1B9
:101CEC00FB681B68FA681268526822F0E0025A60BE
:101CFC00FB685B68B3F5827F11D1FB689B68B3F519
:101D0C00004F04D0FB689B68B3F5806F07D1FB686C
:101D1C001B68FA681268126822F040021A60FB68AD
:101D2C009B6AB3F5005F0FD1FB681B68FA681268F9
:101D3C00126822F400521A60FB681B68FA68126879
:101D4C00126842F400521A60FB68012283F8512099
:101D5C00FB68002283F8502003230FE0FB681B680C
:101D6C009A68BB681A40BB689A4214BF00230123CF
:101D7C00DBB21A46FB799A42A3D1002318461037DE
:101D8C00BD4680BD80B588B002AFF860B9607A609E
:101D9C001A4B1A681A4BA3FB02135B0D4FF47A72A1
:101DAC0002FB03F37B61FB685B68B3F5827F12D1A6
:101DBC007B680093F86880210022BB68FFF778FFEE
:101DCC000346002B15D0FB685B6D43F02002FB68CB
:101DDC005A6503230EE07B69002B00D109E07B6977
:101DEC00013B7B61FB681B689B6803F08003002B45
:101DFC00F1D1002318461837BD4680BD00000020E5
:101E0C00819F5E1680B586B000AF78607B68002B32
:101E1C0001D101232BE27B681B6803F00103002B2B
:101E2C0073D0A24B9B6803F00C03042B0BD09F4B7D
:101E3C009B6803F00C03082B12D19C4B5B6803F4DA
:101E4C008003002B0CD0994B1B6803F40033002B40
:101E5C0005D07B685B68002B01D1012307E254E0BD
:101E6C007B685B68B3F5803F06D1904B8F4A126854
:101E7C0042F480321A601DE07B685B68B3F5A02FDA
:101E8C000CD18A4B894A126842F480221A60874B23
:101E9C00864A126842F480321A600BE0834B834A04
:101EAC00126822F480321A60804B804A126822F445
:101EBC0080221A607B685B68002B13D001F0E6F976
:101ECC00386108E001F0E2F902463B69D31A642B51
:101EDC0001D90323CBE1754B1B6803F40033002BB2
:101EEC00F0D012E001F0D2F9386108E001F0CEF93F
:101EFC0002463B69D31A642B01D90323B7E16B4B20
:101F0C001B6803F40033002BF0D17B681B6803F0D3
:101F1C000203002B63D0654B9B6803F00C03002B72
:101F2C000BD0624B9B6803F00C03082B1CD15F4B4E
:101F3C005B6803F48003002B16D15C4B1B6803F029
:101F4C000203002B05D07B68DB68012B01D0012339
:101F5C008DE1564B554A126822F0F8017A681269E5
:101F6C00D2000A431A603AE07B68DB68002B20D071
:101F7C004F4B01221A6001F089F9386108E001F039
:101F8C0085F902463B69D31A022B01D903236EE172
:101F9C00464B1B6803F00203002BF0D0434B434A23
:101FAC00126822F0F8017A681269D2000A431A60AA
:101FBC0015E03F4B00221A6001F068F9386108E027
:101FCC0001F064F902463B69D31A022B01D90323B1
:101FDC004DE1364B1B6803F00203002BF0D17B68FC
:101FEC001B6803F00803002B30D07B685B69002B67
:101FFC0016D0304B01221A6001F048F9386108E024
:10200C0001F044F902463B69D31A022B01D9032390
:10201C002DE1264B5B6F03F00203002BF0D015E093
:10202C00244B00221A6001F031F9386108E001F00C
:10203C002DF902463B69D31A022B01D9032316E171
:10204C001A4B5B6F03F00203002BF0D17B681B680B
:10205C0003F00403002B00F0A0800023FB75134B4E
:10206C001B6C03F08053002B0FD10023FB600F4B34
:10207C000E4A126C42F080521A640C4B1B6C03F02B
:10208C008053FB60FB680123FB750B4B1B6803F44F
:10209C008073002B21D1084B074A126842F48072DE
:1020AC001A6001F0F3F8386111E000BF003802400B
:1020BC0000004742800E47420070004001F0E6F8F5
:1020CC0002463B69D31A022B01D90323CFE06A4B9A
:1020DC001B6803F48073002BF0D07B689B68012B8A
:1020EC0006D1664B654A126F42F001021A671CE07A
:1020FC007B689B68052B0CD1604B604A126F42F0D9
:10210C0004021A675D4B5D4A126F42F001021A67B6
:10211C000BE05A4B594A126F22F001021A67574BC7
:10212C00564A126F22F004021A677B689B68002BD8
:10213C0015D001F0ABF838610AE001F0A7F80246BF
:10214C003B69D21A41F288339A4201D903238EE0BB
:10215C004A4B1B6F03F00203002BEED014E001F08E
:10216C0095F838610AE001F091F802463B69D21A01
:10217C0041F288339A4201D9032378E03F4B1B6F1D
:10218C0003F00203002BEED1FB7D012B05D13B4B61
:10219C003A4A126C22F080521A647B689B69002BBD
:1021AC0064D0364B9B6803F00C03082B5CD07B6827
:1021BC009B69022B41D1324B00221A6001F066F868
:1021CC00386108E001F062F802463B69D31A022B31
:1021DC0001D903234BE0294B1B6803F00073002B40
:1021EC00F0D1264B7A68D1697A68126A11437A6801
:1021FC00526A920111437A68926A5208013A1204A7
:10220C0011437A68D26A12060A435A601C4B0122A7
:10221C001A6001F03BF8386108E001F037F802462B
:10222C003B69D31A022B01D9032320E0134B1B6803
:10223C0003F00073002BF0D018E0114B00221A6051
:10224C0001F024F8386108E001F020F802463B69FF
:10225C00D31A022B01D9032309E0084B1B6803F0A6
:10226C000073002BF0D101E0012300E0002318469D
:10227C001837BD4680BD00BF0070004000380240DA
:10228C006000474280B584B000AF786039607B68ED
:10229C00002B01D10123CAE0674B1B6803F00F022E
:1022AC003B689A420CD2644B3A68D2B21A70624BB9
:1022BC001B6803F00F023B689A4201D00123B6E081
:1022CC007B681B6803F00203002B20D07B681B6823
:1022DC0003F00403002B05D0584B584A926842F483
:1022EC00E0529A607B681B6803F00803002B05D052
:1022FC00524B524A926842F460429A604F4B4F4A9A
:10230C00926822F0F0017A6892680A439A607B68BE
:10231C001B6803F00103002B45D07B685B68012B25
:10232C0007D1464B1B6803F40033002B1AD1012351
:10233C007DE07B685B68022B03D07B685B68032BBA
:10234C0008D13E4B1B6803F00073002B01D1012315
:10235C006DE007E0394B1B6803F00203002B01D141
:10236C00012364E0354B354A926822F003017A6808
:10237C0052680A439A6000F089FFF8600AE000F0A6
:10238C0085FF0246FB68D21A41F288339A4201D982
:10239C0003234CE0294B9B6803F00C027B685B68C1
:1023AC009B009A42EBD1244B1B6803F00F023B6855
:1023BC009A420CD9204B3A68D2B21A701E4B1B6849
:1023CC0003F00F023B689A4201D001232FE07B6897
:1023DC001B6803F00403002B08D0184B174A9268B3
:1023EC0022F4E0517A68D2680A439A607B681B68D1
:1023FC0003F00803002B09D0104B104A926822F40A
:10240C0060417A681269D2000A439A6000F01CF8A5
:10241C0002460A4B9B6803F0F0031B090849CB5C8E
:10242C00DA40084B1A60002000F000FF0023184629
:10243C001037BD4680BD00BF003C02400038024052
:10244C0014330008000000202DE9B04F8EB000AF0F
:10245C000023FB6200237B630023BB6200233B63EE
:10246C00674B9B6803F00C03042B07D0082B08D098
:10247C00002B40F0BC80634B3B63BBE0624B3B6387
:10248C00B8E05F4B5B6803F03F03FB625C4B5B683F
:10249C0003F48003002B56D0594B5A6847F6C0738F
:1024AC0013409B0918464FF0000102460B46DC0016
:1024BC007C627D6A45EA52757D624FEAC20CC7F8B0
:1024CC0020C0D7E908235C01FC61FD6945EAD265AF
:1024DC00FD614FEA421CC7F818C0D7E90645A41A9B
:1024EC0065EB0305C7E90645FD694FEA8519D7F881
:1024FC0018C049EA9C69BA694FEA8218D7E90645BF
:10250C00B8EB040869EB050918EB000849EB010965
:10251C004FEA49257D61D7F814C04CEAD85CC7F85E
:10252C0014C04FEA48223A61D7E90489404649462B
:10253C00FB6A1A464FF00003FDF752FE02460B46AB
:10254C0013467B6345E02E4B5A6847F6C073134025
:10255C009B0918464FF0000102460B46DC00FC605C
:10256C00FD6845EA5275FD604FEAC20CC7F808C019
:10257C00D7E902234FEA431B4BEAD26B4FEA421ACC
:10258C00BAEB020A6BEB030B4FEA8B1545EA9A6523
:10259C004FEA8A14B4EB0A0465EB0B05241845EBDF
:1025AC000105AA027A607B6843EA94537B604FEA88
:1025BC00842CC7F800C0D7E9004520462946FB6AA1
:1025CC001A464FF00003FDF70BFE02460B4613466E
:1025DC007B630B4B5B6803F440331B0C01335B00D8
:1025EC00BB627A6BBB6AB2FBF3F33B6302E0054B55
:1025FC003B6300BF3B6B18463837BD46BDE8B08F18
:10260C00003802400024F40000127A0080B400AFBD
:10261C00034B1B681846BD465DF8047B704700BF32
:10262C000000002080B500AFFFF7F0FF0246054B1D
:10263C009B6803F4E0539B0A0349CB5C22FA03F337
:10264C00184680BD003802402433000880B500AF26
:10265C00FFF7DCFF0246054B9B6803F460435B0B02
:10266C000349CB5C22FA03F3184680BD00380240C4
:10267C002433000880B489B000AF7860396000233F
:10268C007B6100233B610023BB610023FB6177E18D
:10269C00FB69012202FA03F37B613B681A687B69D0
:1026AC0013403B613A697B699A4240F066813B6812
:1026BC005B68022B03D03B685B68122B23D1FB6950
:1026CC00DA087B68083253F82230BB61FB6903F0EF
:1026DC0007039B000F2202FA03F3DB43BA69134092
:1026EC00BB613B681A69FB6903F007039B0002FAA4
:1026FC0003F3BA691343BB61FB69DA087B680832E0
:10270C00B96943F822107B681B68BB61FB695B00ED
:10271C00032202FA03F3DB43BA691340BB613B6843
:10272C005B6803F00302FB695B0002FA03F3BA690E
:10273C001343BB617B68BA691A603B685B68012B09
:10274C000BD03B685B68022B07D03B685B68112B96
:10275C0003D03B685B68122B30D17B689B68BB61F4
:10276C00FB695B00032202FA03F3DB43BA691340F3
:10277C00BB613B68DA68FB695B0002FA03F3BA6978
:10278C001343BB617B68BA699A607B685B68BB6109
:10279C00FB69012202FA03F3DB43BA691340BB6104
:1027AC003B685B6803F010031A09FB6902FA03F338
:1027BC00BA691343BB617B68BA695A607B68DB6892
:1027CC00BB61FB695B00032202FA03F3DB43BA69CA
:1027DC001340BB613B689A68FB695B0002FA03F328
:1027EC00BA691343BB617B68BA69DA603B685B68A2
:1027FC0003F08053002B00F0C0800023FB60654B7E
:10280C00644A526C42F480425A64624B5B6C03F42F
:10281C008043FB60FB68604BFA699208023253F804
:10282C002230BB61FB6903F003039B000F2202FA09
:10283C0003F3DB43BA691340BB617A68574B9A4286
:10284C0037D07A68564B9A4231D07A68554B9A42B7
:10285C002BD07A68544B9A4225D07A68534B9A42C3
:10286C001FD07A68524B9A4219D07A68514B9A42CF
:10287C0013D07A68504B9A420DD07A684F4B9A42DB
:10288C0007D07A684E4B9A4201D1092312E00A23F1
:10289C0010E008230EE007230CE006230AE00523D2
:1028AC0008E0042306E0032304E0022302E00123F2
:1028BC0000E00023FA6902F0030292009340BA6927
:1028CC001343BB61344BFA6992080232B96943F87D
:1028DC0022103C4B1B68BB613B69DB43BA6913405C
:1028EC00BB613B685B6803F48033002B03D0BA698F
:1028FC003B691343BB61334BBA691A60314B5B685C
:10290C00BB613B69DB43BA691340BB613B685B68E5
:10291C0003F40033002B03D0BA693B691343BB614A
:10292C00284BBA695A60274B9B68BB613B69DB43F8
:10293C00BA691340BB613B685B6803F48013002BDE
:10294C0003D0BA693B691343BB611E4BBA699A60E9
:10295C001C4BDB68BB613B69DB43BA691340BB6151
:10296C003B685B6803F40013002B03D0BA693B6926
:10297C001343BB61134BBA69DA60FB690133FB612A
:10298C00FB690F2B7FF684AE2437BD465DF8047BC4
:10299C00704700BF00380240003801400000024080
:1029AC000004024000080240000C024000100240EB
:1029BC000014024000180240001C0240002002409B
:1029CC0000240240003C014080B586B000AF786026
:1029DC0000237B6100F05AFC38617B68002B01D12D
:1029EC00012399E07B68002283F834207B68022263
:1029FC0083F835207B681B687A681268126822F0AD
:102A0C0001021A600FE000F041FC02463B69D31A48
:102A1C00052B08D97B6820225A657B68032283F832
:102A2C003520032378E07B681B681B6803F00103E7
:102A3C00002BE8D17B681B681B687B617A69384B7B
:102A4C0013407B617B685A687B689B681A437B6880
:102A5C00DB681A437B681B691A437B685B691A4302
:102A6C007B689B691A437B68DB691A437B681B6A2A
:102A7C0013437A6913437B617B685B6A042B07D130
:102A8C007B68DA6A7B681B6B13437A6913437B613F
:102A9C007B681B687A691A607B681B685B697B6161
:102AAC007B6923F007037B617B685B6A7A6913435C
:102ABC007B617B685B6A042B17D17B689B6A7A69A4
:102ACC0013437B617B68DB6A002B0ED0786800F0C7
:102ADC0009FA0346002B08D07B6840225A657B68B4
:102AEC00012283F83520012316E07B681B687A6984
:102AFC005A61786800F0C0F90346FB607B68DB6DB7
:102B0C003F229A40FB689A607B6800225A657B687A
:102B1C00012283F83520002318461837BD4680BDA6
:102B2C003F8010F080B483B000AF78607B6893F87E
:102B3C003530DBB2022B04D07B6880225A6501232E
:102B4C000CE07B68052283F835207B681B687A686B
:102B5C001268126822F001021A60002318460C3722
:102B6C00BD465DF8047B704780B586B000AF7860D9
:102B7C000023BB60934B1A68934BA3FB02139B0A75
:102B8C007B617B689B6D3B613B691B68FB607B6871
:102B9C00DB6D08229A40FB681340002B1AD07B682F
:102BAC001B681B6803F00403002B13D07B681B68A5
:102BBC007A681268126822F004021A607B68DB6D76
:102BCC0008229A403B699A607B685B6D43F0010276
:102BDC007B685A657B68DB6D01229A40FB68134069
:102BEC00002B12D07B681B685B6903F08003002B01
:102BFC000BD07B68DB6D01229A403B699A607B6845
:102C0C005B6D43F002027B685A657B68DB6D0422C6
:102C1C009A40FB681340002B12D07B681B681B6822
:102C2C0003F00203002B0BD07B68DB6D04229A406F
:102C3C003B699A607B685B6D43F004027B685A6564
:102C4C007B68DB6D10229A40FB681340002B43D04D
:102C5C007B681B681B6803F00803002B3CD07B6867
:102C6C00DB6D10229A403B699A607B681B681B687D
:102C7C0003F48023002B18D07B681B681B6803F4BB
:102C8C000023002B08D17B681B6C002B24D07B68A5
:102C9C001B6C786898471FE07B689B6C002B1BD0E3
:102CAC007B689B6C7868984716E07B681B681B6890
:102CBC0003F48073002B07D17B681B687A68126859
:102CCC00126822F008021A607B681B6C002B03D080
:102CDC007B681B6C786898477B68DB6D20229A4078
:102CEC00FB681340002B00F090807B681B681B680E
:102CFC0003F01003002B00F088807B68DB6D202232
:102D0C009A403B699A607B6893F83530DBB2052BAF
:102D1C0037D17B681B687A681268126822F0160239
:102D2C001A607B681B687A681268526922F080020C
:102D3C005A617B681B6C002B03D17B689B6C002B4E
:102D4C0007D07B681B687A681268126822F0080248
:102D5C001A607B68DB6D3F229A403B699A607B6806
:102D6C00002283F834207B68012283F835207B68AD
:102D7C001B6D002B04D07B681B6D7868984778E03E
:102D8C0077E07B681B681B6803F48023002B1DD045
:102D9C007B681B681B6803F40023002B08D17B683D
:102DAC005B6C002B31D07B685B6C786898472CE0AF
:102DBC007B68DB6B002B28D07B68DB6B78689847D3
:102DCC0023E000BF00000020B5814E1B7B681B6810
:102DDC001B6803F48073002B0FD17B681B687A6827
:102DEC001268126822F010021A607B68002283F8C5
:102DFC0034207B68012283F835207B68DB6B002B49
:102E0C0003D07B68DB6B786898477B685B6D002B25
:102E1C002FD07B685B6D03F00103002B21D07B6806
:102E2C00052283F835207B681B687A681268126863
:102E3C0022F001021A60BB680133BB607A699342CD
:102E4C0000D906E07B681B681B6803F00103002BAC
:102E5C00F1D17B68002283F834207B68012283F84F
:102E6C0035207B68DB6C002B03D07B68DB6C7868CF
:102E7C0098471837BD4680BD80B485B000AF7860E8
:102E8C007B681B68DBB2A3F11002144BA3FB02138B
:102E9C001B09FB60124AFB6813441B781A467B68BB
:102EAC00DA65FB68032B09D97B681B6823F47F73F5
:102EBC0023F003031A1D7B689A6507E07B681B6887
:102ECC0023F47F7323F003037A6893657B689B6D0F
:102EDC0018461437BD465DF8047B7047ABAAAAAA06
:102EEC002C33000880B485B000AF78600023FB73EE
:102EFC007B689B6ABB607B689B69002B23D1BB689A
:102F0C00032B1ED801A252F823F000BF292F000872
:102F1C003D2F0008292F00084F2F00087B68DB6A23
:102F2C0003F08073002B02D00123FB730AE009E04D
:102F3C007B68DB6AB3F1C07F02D10123FB7301E034
:102F4C0000E000BF3DE07B689B69B3F5005F25D1D5
:102F5C00BB68032B20D801A252F823F0792F00086C
:102F6C007F2F0008792F0008932F00080123FB7393
:102F7C0013E07B68DB6A03F08073002B02D0012323
:102F8C00FB730AE009E07B68DB6AB3F1C07F02D116
:102F9C000123FB7301E000E000BF12E0BB68022BD1
:102FAC0002D9032B03D00CE00123FB7309E07B68EF
:102FBC00DB6A03F08073002B02D00123FB73FFE765
:102FCC0000BFFB7B18461437BD465DF8047B704789
:102FDC0080B485B000AF78607B6803F00703FB60BA
:102FEC000C4BDB68BB60BA684FF6FF031340BB6049
:102FFC00FB681A02BB68134343F0BF6343F400330E
:10300C00BB60044BBA68DA601437BD465DF8047BCC
:10301C00704700BF00ED00E080B400AF044BDB68EC
:10302C0003F4E0631B0A1846BD465DF8047B704749
:10303C0000ED00E080B483B000AF0346FB7197F95C
:10304C000730002B0BDB084B97F907205209F97955
:10305C0001F01F01012000FA01F143F822100C3796
:10306C00BD465DF8047B704700E100E080B483B09E
:10307C0000AF03463960FB7197F90730002B0ADB70
:10308C000D4997F907303A68D2B21201D2B20B440B
:10309C0083F800230AE00949FB7903F00F03043B92
:1030AC003A68D2B21201D2B20B441A760C37BD4632
:1030BC005DF8047B704700BF00E100E000ED00E02C
:1030CC0080B489B000AFF860B9607A60FB6803F037
:1030DC000703FB61FB69C3F10703042B28BF04231F
:1030EC00BB61FB690433062B02D9FB69033B00E08F
:1030FC0000237B61BB69012202FA03F35A1EBB68F1
:10310C001A407B699A407B69012101FA03F3591E2D
:10311C007B680B40134318462437BD465DF8047B8F
:10312C00704700BF80B582B000AF78607B68013B10
:10313C00B3F1807F01D301230FE00A4B7A68013A87
:10314C005A604FF0FF300F21FFF790FF054B002224
:10315C009A60044B07221A60002318460837BD46B4
:10316C0080BD00BF10E000E080B582B000AF786099
:10317C007868FFF72DFF0837BD4680BD80B586B057
:10318C0000AF0346B9607A60FB7300237B61FFF7E5
:10319C0043FF78617869B9687A68FFF791FF034655
:1031AC0097F90F2010461946FFF760FF1837BD46F8
:1031BC0080BD00BF80B582B000AF0346FB7197F9AC
:1031CC0007301846FFF736FF0837BD4680BD00BFF5
:1031DC0080B582B000AF78607868FFF7A3FF034634
:1031EC0018460837BD4680BD80B500AF0E4B0E4A61
:1031FC00126842F400721A600B4B0B4A126842F4CC
:10320C0080621A60084B084A126842F480721A6095
:10321C000320FFF7A9FF002000F008F8FDF75EFB84
:10322C000023184680BD00BF003C024080B582B030
:10323C0000AF7860124B1A68124B1B784FF47A71FE
:10324C00B1FBF3F3B2FBF3F31846FFF7C1FF0346F0
:10325C00002B01D001230EE07B680F2B0AD84FF016
:10326C00FF3079680022FFF789FF074B7A681A60F4
:10327C00002300E0012318460837BD4680BD00BF7F
:10328C00000000201C0000201800002080B400AFBB
:10329C00034B1B681846BD465DF8047B704700BFA6
:1032AC005002002070B50E4B0E4DED1AAD100024DF
:1032BC001E46AC4204D056F8242090470134F8E75F
:1032CC0000F016F8084D094BED1AAD1000241E46FF
:1032DC00AC4204D056F8242090470134F8E770BD76
:1032EC003C3300083C330008403300083C330008F2
:1032FC00F8B500BFF8BC08BC9E467047F8B500BFD7
:08330C00F8BC08BC9E467047A6
:103314000000000000000000010203040607080981
:103324000000000001020304000610160006101637
:0833340048CFFF7F01000000FB
:04333C00D1010008B3
:04334000AD010008D3
:103344000024F40000000100020003000400050052
:10335400060007000800090010000000010000003A
:04000005080007994F
:00000001FF
